{
  "contractName": "BookAppointment",
  "abi": [
    {
      "anonymous": false,
      "inputs": [
        {
          "indexed": true,
          "internalType": "address",
          "name": "user",
          "type": "address"
        },
        {
          "indexed": true,
          "internalType": "bytes32",
          "name": "blockHash",
          "type": "bytes32"
        }
      ],
      "name": "appointmentCreated",
      "type": "event"
    },
    {
      "inputs": [
        {
          "internalType": "address",
          "name": "",
          "type": "address"
        }
      ],
      "name": "Appointment",
      "outputs": [
        {
          "internalType": "string",
          "name": "firstName",
          "type": "string"
        },
        {
          "internalType": "string",
          "name": "middleName",
          "type": "string"
        },
        {
          "internalType": "string",
          "name": "lastName",
          "type": "string"
        },
        {
          "internalType": "string",
          "name": "fathersName",
          "type": "string"
        },
        {
          "internalType": "string",
          "name": "emailAddress",
          "type": "string"
        },
        {
          "internalType": "uint256",
          "name": "age",
          "type": "uint256"
        },
        {
          "internalType": "string",
          "name": "phoneNumber",
          "type": "string"
        },
        {
          "internalType": "string",
          "name": "addressofPatient",
          "type": "string"
        },
        {
          "internalType": "string",
          "name": "concernedDepartment",
          "type": "string"
        }
      ],
      "stateMutability": "view",
      "type": "function",
      "constant": true
    },
    {
      "inputs": [
        {
          "internalType": "string",
          "name": "first",
          "type": "string"
        },
        {
          "internalType": "string",
          "name": "middle",
          "type": "string"
        },
        {
          "internalType": "string",
          "name": "last",
          "type": "string"
        },
        {
          "internalType": "string",
          "name": "father",
          "type": "string"
        },
        {
          "internalType": "string",
          "name": "mail",
          "type": "string"
        },
        {
          "internalType": "uint256",
          "name": "age",
          "type": "uint256"
        },
        {
          "internalType": "string",
          "name": "phone",
          "type": "string"
        },
        {
          "internalType": "string",
          "name": "location",
          "type": "string"
        },
        {
          "internalType": "string",
          "name": "department",
          "type": "string"
        }
      ],
      "name": "createAppointment",
      "outputs": [],
      "stateMutability": "nonpayable",
      "type": "function"
    }
  ],
  "bytecode": "0x608060405234801561001057600080fd5b50610d67806100206000396000f3fe608060405234801561001057600080fd5b50600436106100365760003560e01c80631e5d449b1461003b578063235b4d5c14610057575b600080fd5b6100556004803603810190610050919061084b565b61008f565b005b610071600480360381019061006c9190610822565b61025f565b60405161008699989796959493929190610a19565b60405180910390f35b6040518061012001604052808a8152602001898152602001888152602001878152602001868152602001858152602001848152602001838152602001828152506000803373ffffffffffffffffffffffffffffffffffffffff1673ffffffffffffffffffffffffffffffffffffffff16815260200190815260200160002060008201518160000190805190602001906101299291906106ed565b5060208201518160010190805190602001906101469291906106ed565b5060408201518160020190805190602001906101639291906106ed565b5060608201518160030190805190602001906101809291906106ed565b50608082015181600401908051906020019061019d9291906106ed565b5060a0820151816005015560c08201518160060190805190602001906101c49291906106ed565b5060e08201518160070190805190602001906101e19291906106ed565b506101008201518160080190805190602001906101ff9291906106ed565b509050506001436102109190610b50565b403373ffffffffffffffffffffffffffffffffffffffff167f430bc9be10e62cf156975b89f2e1b52578adb3dc200af48544886da1ca271b9060405160405180910390a3505050505050505050565b600060205280600052604060002060009150905080600001805461028290610c02565b80601f01602080910402602001604051908101604052809291908181526020018280546102ae90610c02565b80156102fb5780601f106102d0576101008083540402835291602001916102fb565b820191906000526020600020905b8154815290600101906020018083116102de57829003601f168201915b50505050509080600101805461031090610c02565b80601f016020809104026020016040519081016040528092919081815260200182805461033c90610c02565b80156103895780601f1061035e57610100808354040283529160200191610389565b820191906000526020600020905b81548152906001019060200180831161036c57829003601f168201915b50505050509080600201805461039e90610c02565b80601f01602080910402602001604051908101604052809291908181526020018280546103ca90610c02565b80156104175780601f106103ec57610100808354040283529160200191610417565b820191906000526020600020905b8154815290600101906020018083116103fa57829003601f168201915b50505050509080600301805461042c90610c02565b80601f016020809104026020016040519081016040528092919081815260200182805461045890610c02565b80156104a55780601f1061047a576101008083540402835291602001916104a5565b820191906000526020600020905b81548152906001019060200180831161048857829003601f168201915b5050505050908060040180546104ba90610c02565b80601f01602080910402602001604051908101604052809291908181526020018280546104e690610c02565b80156105335780601f1061050857610100808354040283529160200191610533565b820191906000526020600020905b81548152906001019060200180831161051657829003601f168201915b50505050509080600501549080600601805461054e90610c02565b80601f016020809104026020016040519081016040528092919081815260200182805461057a90610c02565b80156105c75780601f1061059c576101008083540402835291602001916105c7565b820191906000526020600020905b8154815290600101906020018083116105aa57829003601f168201915b5050505050908060070180546105dc90610c02565b80601f016020809104026020016040519081016040528092919081815260200182805461060890610c02565b80156106555780601f1061062a57610100808354040283529160200191610655565b820191906000526020600020905b81548152906001019060200180831161063857829003601f168201915b50505050509080600801805461066a90610c02565b80601f016020809104026020016040519081016040528092919081815260200182805461069690610c02565b80156106e35780601f106106b8576101008083540402835291602001916106e3565b820191906000526020600020905b8154815290600101906020018083116106c657829003601f168201915b5050505050905089565b8280546106f990610c02565b90600052602060002090601f01602090048101928261071b5760008555610762565b82601f1061073457805160ff1916838001178555610762565b82800160010185558215610762579182015b82811115610761578251825591602001919060010190610746565b5b50905061076f9190610773565b5090565b5b8082111561078c576000816000905550600101610774565b5090565b60006107a361079e84610b03565b610ade565b9050828152602081018484840111156107bb57600080fd5b6107c6848285610bc0565b509392505050565b6000813590506107dd81610d03565b92915050565b600082601f8301126107f457600080fd5b8135610804848260208601610790565b91505092915050565b60008135905061081c81610d1a565b92915050565b60006020828403121561083457600080fd5b6000610842848285016107ce565b91505092915050565b60008060008060008060008060006101208a8c03121561086a57600080fd5b60008a013567ffffffffffffffff81111561088457600080fd5b6108908c828d016107e3565b99505060208a013567ffffffffffffffff8111156108ad57600080fd5b6108b98c828d016107e3565b98505060408a013567ffffffffffffffff8111156108d657600080fd5b6108e28c828d016107e3565b97505060608a013567ffffffffffffffff8111156108ff57600080fd5b61090b8c828d016107e3565b96505060808a013567ffffffffffffffff81111561092857600080fd5b6109348c828d016107e3565b95505060a06109458c828d0161080d565b94505060c08a013567ffffffffffffffff81111561096257600080fd5b61096e8c828d016107e3565b93505060e08a013567ffffffffffffffff81111561098b57600080fd5b6109978c828d016107e3565b9250506101008a013567ffffffffffffffff8111156109b557600080fd5b6109c18c828d016107e3565b9150509295985092959850929598565b60006109dc82610b34565b6109e68185610b3f565b93506109f6818560208601610bcf565b6109ff81610cf2565b840191505092915050565b610a1381610bb6565b82525050565b6000610120820190508181036000830152610a34818c6109d1565b90508181036020830152610a48818b6109d1565b90508181036040830152610a5c818a6109d1565b90508181036060830152610a7081896109d1565b90508181036080830152610a8481886109d1565b9050610a9360a0830187610a0a565b81810360c0830152610aa581866109d1565b905081810360e0830152610ab981856109d1565b9050818103610100830152610ace81846109d1565b90509a9950505050505050505050565b6000610ae8610af9565b9050610af48282610c34565b919050565b6000604051905090565b600067ffffffffffffffff821115610b1e57610b1d610cc3565b5b610b2782610cf2565b9050602081019050919050565b600081519050919050565b600082825260208201905092915050565b6000610b5b82610bb6565b9150610b6683610bb6565b925082821015610b7957610b78610c65565b5b828203905092915050565b6000610b8f82610b96565b9050919050565b600073ffffffffffffffffffffffffffffffffffffffff82169050919050565b6000819050919050565b82818337600083830152505050565b60005b83811015610bed578082015181840152602081019050610bd2565b83811115610bfc576000848401525b50505050565b60006002820490506001821680610c1a57607f821691505b60208210811415610c2e57610c2d610c94565b5b50919050565b610c3d82610cf2565b810181811067ffffffffffffffff82111715610c5c57610c5b610cc3565b5b80604052505050565b7f4e487b7100000000000000000000000000000000000000000000000000000000600052601160045260246000fd5b7f4e487b7100000000000000000000000000000000000000000000000000000000600052602260045260246000fd5b7f4e487b7100000000000000000000000000000000000000000000000000000000600052604160045260246000fd5b6000601f19601f8301169050919050565b610d0c81610b84565b8114610d1757600080fd5b50565b610d2381610bb6565b8114610d2e57600080fd5b5056fea2646970667358221220b421ebb114e1d30ad1a9408ad013d2c78accb48436910727e1fe31e9b3fc4aed64736f6c63430008020033",
  "immutableReferences": {},
  "source": "// SPDX-License-Identifier: MIT\r\n\r\npragma solidity ^0.8.2;\r\n\r\ncontract BookAppointment {\r\n    struct RequiredDetails {\r\n        string firstName;\r\n        string middleName;\r\n        string lastName;\r\n        string fathersName;\r\n        string emailAddress;\r\n        uint age;\r\n        string phoneNumber;\r\n        string addressofPatient;\r\n        string concernedDepartment;\r\n    }\r\n\r\n    mapping(address => RequiredDetails) public Appointment;\r\n\r\n    event appointmentCreated(\r\n        address indexed user,\r\n        bytes32 indexed blockHash\r\n    );\r\n\r\n    function createAppointment(\r\n        string memory first,\r\n        string memory middle,\r\n        string memory last,\r\n        string memory father,\r\n        string memory mail,\r\n        uint age,\r\n        string memory phone,\r\n        string memory location,\r\n        string memory department\r\n    ) public {\r\n        Appointment[msg.sender] = RequiredDetails(\r\n            first,\r\n            middle,\r\n            last,\r\n            father,\r\n            mail,\r\n            age,\r\n            phone,\r\n            location,\r\n            department\r\n        );\r\n\r\n        emit appointmentCreated(msg.sender, blockhash(block.number - 1));\r\n    }\r\n}\r\n",
  "sourcePath": "D:\\projects\\BTest\\contracts\\BookAppointment.sol",
  "compiler": {
    "name": "solc",
    "version": "0.8.2+commit.661d1103.Emscripten.clang"
  },
  "schemaVersion": "3.4.16",
  "updatedAt": "2024-05-17T21:57:16.003Z",
  "networkType": "ethereum",
  "devdoc": {
    "kind": "dev",
    "methods": {},
    "version": 1
  },
  "userdoc": {
    "kind": "user",
    "methods": {},
    "version": 1
  }
}